:020000040800F2
:100000003005002029020008EB020008E302000886
:10001000E7020008DD020008DB0300080000000022
:10002000000000000000000000000000EF020008D7
:10003000E102000800000000ED020008F1020008E3
:100040004902000849020008490200084902000864
:100050004902000849020008490200084902000854
:100060004902000849020008490200084902000844
:100070004902000849020008490200084902000834
:100080004902000849020008490200084902000824
:100090004902000849020008490200084902000814
:1000A0004902000849020008490200084902000804
:1000B00049020008490200084902000849020008F4
:1000C00049020008490200084902000849020008E4
:1000D00049020008F5020008490200084902000828
:1000E00049020008490200084902000849020008C4
:1000F00049020008490200084902000849020008B4
:1001000049020008490200084902000849020008A3
:100110004902000849020008490200084902000893
:100120004902000849020008490200084902000883
:100130004902000849020008490200084902000873
:100140004902000849020008490200084902000863
:100150004902000849020008490200084902000853
:100160004902000849020008490200084902000843
:100170004902000849020008490200084902000833
:10018000490200084902000800F002F800F03CF8BB
:100190000AA090E8000C82448344AAF10107DA45E2
:1001A00001D100F031F8AFF2090EBAE80F0013F0F8
:1001B000010F18BFFB1A43F0010318473402000077
:1001C00054020000103A24BF78C878C1FAD8520708
:1001D00024BF30C830C144BF04680C6070470000C1
:1001E0000023002400250026103A28BF78C1FBD840
:1001F000520728BF30C148BF0B6070471FB500F0E1
:10020000F2F81FBD10B510BD00F035F81146FFF72C
:10021000F5FF00F0E6F800F053F803B4FFF7F2FF43
:1002200003BC00F0DCF800000B48016841F47001E9
:1002300001600A480047FEE7FEE7FEE7FEE7FEE74B
:10024000FEE7FEE7FEE7FEE7FEE70000044805499B
:10025000034A054B7047000088ED00E08901000863
:100260003001002030050020300100207047704729
:10027000704770477047754600F02CF8AE46050091
:100280006946534620F00700854618B020B5FFF7B1
:10029000DDFFBDE820404FF000064FF000074FF0B3
:1002A00000084FF0000B21F00701AC46ACE8C00994
:1002B000ACE8C009ACE8C009ACE8C0098D4670479D
:1002C00010B50446AFF300802046BDE81040FFF7AC
:1002D000A4BF000000487047D000002000BFFEE728
:1002E000704700BFFEE700BFFEE7704770477047EA
:1002F0007047000010B540F225511D4800F03EF84F
:1003000010B31B4800F064F8C4B21A48008800F427
:100310000040C8B91748008800F4804060B10A2C3A
:1003200003D000201349088020E01248008840F4E0
:1003300000401049088019E00D2C06D10D480088B6
:1003400040F480400B49088010E00A480088C0F360
:100350000D0009490C5407480088401C05490880D5
:1003600008460088C72801DD0020088010BD000075
:1003700000100140040000200800002070B5024673
:10038000002400230025002040F66A16B14200D167
:1003900000BFC1F3421501F01F03012606FA03F363
:1003A000012D02D19689334006E0022D02D1168A32
:1003B000334001E0968A33400C12012606FA04F419
:1003C0001688344013B10CB1012000E0002070BD4C
:1003D00001468888C0F30800704700BFFEE700BFF1
:1003E0007047002070474FF04070E1EE100A7047F0
:1003F000100400080000002008000000C4010008EC
:10040000180400080800002028050000E00100088A
:080410000000000000000000E4
:040000050800018965
:00000001FF
